:100000000C9480000C94A8000C94A8000C94A800F8
:100010000C94A8000C94A8000C94A8000C94A800C0
:100020000C94A8000C94A8000C94A8000C94A800B0
:100030000C94A8000C94D30C0C94A8000C94A80069
:100040000C944B030C94A8000C9416020C94F00131
:100050000C94A8000C94A8000C94A8000C94A80080
:100060000C94C70A0C94A8007617EC17B6179E17C5
:1000700091109110731791107317911073177317D4
:10008000731791107317731744196E19B319DB198D
:10009000091A391A621A0306050607061406160617
:1000A00018061A06000000002300260029000000A0
:1000B0000000240027002A0000000000250028007E
:1000C0002B000404040404040404020202020202D9
:1000D000030303030303010204081020408001020C
:1000E000040810200102040810200000000800028B
:1000F0000100000304070000000000000000FD1BD9
:1001000011241FBECFEFD8E0DEBFCDBF11E0A0E0CD
:10011000B1E0E8ECFAE302C005900D92AA33B10712
:10012000D9F727E0AAE3B1E001C01D92AF35B207CD
:10013000E1F710E0C0E8D0E004C02197FE010E9482
:10014000471DCF37D107C9F70E94FA0C0C94621DE6
:100150000C940000FC01918D828D981761F0828DC6
:10016000DF01A80FB11D5D968C91928D9F5F9F73EB
:10017000928F90E008958FEF9FEF0895FC01918D8D
:10018000828D981731F0828DE80FF11D858D90E0FA
:1001900008958FEF9FEF0895FC01918D228D892F97
:1001A00090E0805C9F4F821B91098F73992708957F
:1001B00083EC95E00E94CC0021E0892B09F420E03B
:1001C000822F0895FC01848DDF01A80FB11DA35A71
:1001D000BF4F2C91848D90E001968F739927848F67
:1001E000A689B7892C93A089B1898C9180648C935E
:1001F000938D848D981306C00288F389E02D808149
:100200008F7D80830895EF92FF920F931F93CF937A
:10021000DF93EC0181E0888F9B8D8C8D981305C056
:10022000E889F989808185FD24C0F62E0B8D10E0C8
:100230000F5F1F4F0F731127E02E8C8DE8120CC03B
:100240000FB607FCFACFE889F989808185FFF5CFE1
:10025000CE010E94E200F1CF8B8DFE01E80FF11D6F
:10026000E35AFF4FF0820B8FEA89FB89808180621D
:1002700007C0EE89FF896083E889F98980818064FD
:10028000808381E090E0DF91CF911F910F91FF90EB
:10029000EF900895CF93DF93EC01888D8823C9F008
:1002A000EA89FB89808185FD05C0A889B9898C917F
:1002B00086FD0FC00FB607FCF5CF808185FFF2CF1A
:1002C000A889B9898C9185FFEDCFCE010E94E2000B
:1002D000E7CFDF91CF91089580E090E0892B29F05E
:1002E0000E94D80081110C9400000895833081F0A1
:1002F00028F4813099F08230A1F008958730A9F078
:100300008830B9F08430D1F4809180008F7D03C0B3
:10031000809180008F7780938000089584B58F77D7
:1003200002C084B58F7D84BD08958091B0008F7721
:1003300003C08091B0008F7D8093B0000895089530
:10034000089591E0960F993150F099EF960FE82FAC
:10035000F0E0E15EFA4F2FEF20838F5F02C0913112
:1003600048F09850E82FF0E0E15EFA4F2FEF20833D
:100370008F5F02C0993040F09850E82FF0E0E15EC6
:10038000FA4F2FEF20838F5F30E020E0391721F004
:10039000220F21603F5FFACFE82FF0E0E15EFA4FD5
:1003A0002083089585E0EFE1F5E0DF01982F1D92AD
:1003B0009A95E9F7E6E1F5E0DF011D928A95E9F704
:1003C000089580917A0481110AC080917E04882367
:1003D00021F08CEF90E00E94470A1092A804089543
:1003E0001F920F920FB60F9211242F933F934F93AA
:1003F0005F936F937F938F939F93AF93BF93EF938D
:10040000FF9383EC95E00E94E200FF91EF91BF9192
:10041000AF919F918F917F916F915F914F913F919C
:100420002F910F900FBE0F901F9018951F920F9253
:100430000FB60F9211242F938F939F93EF93FF93F7
:10044000E091D305F091D4058081E091D905F09138
:10045000DA0582FD12C090818091DC058F5F8F7379
:100460002091DD05821751F0E091DC05F0E0ED53BD
:10047000FA4F958F8093DC0501C08081FF91EF9149
:100480009F918F912F910F900FBE0F901F901895F5
:100490001F93CF93DF93282F30E0F901E651FF4FF0
:1004A0008491F901EA52FF4FD491F901EE53FF4FC5
:1004B000C491CC23C9F0162F81110E947601EC2F34
:1004C000F0E0EE0FFF1FE854FF4FA591B4918FB7F6
:1004D000F894111105C09C91ED2FE095E92302C01D
:1004E000EC91ED2BEC938FBFDF91CF911F9108958D
:1004F000CF93DF9390E0FC01EA52FF4F2491FC017F
:10050000EE53FF4F8491882361F190E0880F991F8B
:10051000FC01E255FF4FC591D491FC01E854FF4F17
:10052000A591B491611109C09FB7F8948881209575
:1005300082238883EC912E230BC0623061F49FB735
:10054000F8943881822F809583238883EC912E2B19
:100550002C939FBF06C08FB7F894E8812E2B288379
:100560008FBFDF91CF9108953FB7F89480912E050A
:1005700090912F05A0913005B091310526B5A89B2B
:1005800005C02F3F19F00196A11DB11D3FBFBA2F25
:10059000A92F982F8827820F911DA11DB11DBC0185
:1005A000CD0142E0660F771F881F991F4A95D1F74A
:1005B00008952FB7F89460912A0570912B058091CA
:1005C0002C0590912D052FBF0895CF93DF93809137
:1005D000A804823019F481E08093A80480917E04FD
:1005E000882341F08091A804813021F488EF90E0C5
:1005F0000E94470AD1E0D093AD04C0912805C111F3
:1006000008C00E94D9027093AB046093AA04D093EF
:10061000AC04CF5FC63018F4C093280502C0109216
:100620002805DF91CF910895CF9380917A048111AD
:1006300030C00E94E502C0912605C11120C0809102
:100640002705811116C00E94D902209124053091FE
:100650002505AB01421B530B9A01032E000C440BE2
:10066000550B60E67AEE80E090E00E94B01C20938B
:1006700080040E94D9027093250560932405CF5F02
:10068000C83118F4C093260502C0109226051092B6
:100690002705CF9108951F920F920FB60F92112444
:1006A0002F933F938F939F93AF93BF9380912A058E
:1006B00090912B05A0912C05B0912D053091290525
:1006C00023E0230F2D3720F40196A11DB11D05C095
:1006D00026E8230F0296A11DB11D209329058093C2
:1006E0002A0590932B05A0932C05B0932D0580919E
:1006F0002E0590912F05A0913005B09131050196FE
:10070000A11DB11D80932E0590932F05A093300558
:10071000B0933105BF91AF919F918F913F912F91F0
:100720000F900FBE0F901F901895843011F4809198
:10073000A5048093A5041092A7041092AE0484E04F
:100740008093A60480E090E026E0FC01EF57FB4F89
:10075000DF01322F1D923A95E9F706968432910512
:10076000A1F7089580917A04811118C0109228058C
:1007700084E00E94950380917E04882321F08AEF13
:1007800090E00E94470A82E08093A80480917A0456
:1007900081110E94E50281E08093270508958093EE
:1007A0007A04811109C088E78093800480916F00EA
:1007B0008E7F80936F0008958093800428E1829F4C
:1007C000C00111246CE370E00E94331D9B01770F80
:1007D000440B550B60E472E48FE090E00E94B01C83
:1007E000CA01B9010E942B0985EE92E09093A305FE
:1007F0008093A20581E080936F00909181008091A9
:10080000A005892B809381000895582F8195652F2D
:100810000E94131D692F70913E0140913D01EDE84A
:10082000F9ED242F30E0C901A6E095958795AA95AA
:10083000E1F70296D90102C0B595A7958A95E2F72E
:100840002A273B272F9F202D1124822F82958695C2
:10085000869583708227B72F4E9FB00D11244B2FA2
:100860008617F8F2B0933D01652F0E94131D892F62
:1008700008958091A804813059F480917E048823E2
:1008800021F08CEF90E00E94470A1092A80408958E
:10089000811115C01092280584E00E949503809173
:1008A0007E04882321F08AEF90E00E94470A82E0CC
:1008B0008093A80480917A0481110C94E502089534
:1008C0004F925F926F927F928F929F92AF92BF9260
:1008D000CF92DF92EF92FF920F931F93CF93DF930C
:1008E00010924B016FE3E62E61E0F62EC0E0D0E0FF
:1008F0007FEC472E73E0572E612C712C8824839453
:10090000912CCE0195958795282F2170B22E6E01DE
:10091000D594C794D594C79444E0D42E00E010E059
:100920003C2F3170A32E6A2D81E10E9448026B2D6D
:1009300080E10E9448026C2D8FE00E9448020E94D4
:10094000340A499764F00E94340A893E934064F463
:100950000E94340A092E000CAA0BBB0B09C089E1C6
:1009600090E0A0E0B0E004C088EE93E0A0E0B0E04A
:100970009C01AD012951310941095109AFEFB3E0A3
:100980000E94CF1CA30192010E94B01C020F131FF2
:10099000DA94D110C8CF1695079516950795F701EB
:1009A000808191819C012F5F3F4F2017310730F0EC
:1009B00098012F5F3F4F2817390770F420914B01A2
:1009C000C4010C2E01C0880F0A94EAF7822B809391
:1009D0004B01F701118300832196F2E0EF0EF11C29
:1009E000C630D10509F08DCFDF91CF911F910F91C6
:1009F000FF90EF90DF90CF90BF90AF909F908F903F
:100A00007F906F905F904F90089587FF0DC09CE09E
:100A1000980F923048F0982F9B7F993F29F0803FA4
:100A200008F4807F90E0089580E090E008959C01B4
:100A30008F7C8038910561F0203D310549F081E0DF
:100A4000203E310539F0203C310521F080E0089549
:100A500081E00895089580917F04882321F083E048
:100A6000809384060895109284060895DC01ED9128
:100A7000FC910190F081E02D09948F929F92AF92AA
:100A8000BF92CF92DF92EF92FF920F931F93CF937B
:100A9000DF9380913A01882369F00E94D902209166
:100AA0003B0130913C01621B730B6D3D754014F0AE
:100AB00010923A0180913A018111B2C10E94D20193
:100AC0008091AF04823009F4E1C030F4882359F0FA
:100AD000813009F485C0A4C1833009F41EC184307B
:100AE00009F44CC19DC18091B10490E02091A5040E
:100AF000FC01EE0FFF1FEE0FFF1FED59FB4F408172
:100B00004F7150E060E0DC0175E0AA0FBB1F7A95E1
:100B1000E1F713EC219FA00DB11D1124C12CD12CA4
:100B20007601C394262F30E0421753070CF12A0FA9
:100B30003B1FF901E85AFE4F20812F70B9F0E62FD4
:100B4000E695E695E695F0E0E15EFA4F262F2770F0
:100B50004601570104C0880C991CAA1CBB1C2A958D
:100B6000D2F7950184017081072B00836F5FDACF84
:100B70002091A8042130F1F426E0289FF001299F5C
:100B8000F00D1124EF57FB4F2081E22FEF71F0E0C1
:100B900043E0F595E7954A95E1F7E15EFA4F422F7C
:100BA000477021E030E001C0220F4A95EAF730811A
:100BB00023272083019641E050E060E070E08A0145
:100BC0009B0104C0000F111F221F331F8A95D2F70B
:100BD000D901C80120912305822B8093230520C1D0
:100BE0008091B004E82FEF7787FD28C02091B104F1
:100BF0008E2F90E0FC013197E730F105E8F4E55BDA
:100C0000FF4F0C94471D81E081C182E07FC184E0E9
:100C100080931F0514E0219FF0011124EE59FB4F32
:100C2000828182FD70C175C188E070C180E16EC1B2
:100C300080E26CC180E46AC18FE768C1E330A1F053
:100C400030F4E13071F0E230E9F482E01CC0E430CD
:100C500089F0E530B9F480E18093200580917F042C
:100C60000EC0E0932005DCC084E0809320058091D5
:100C70007D0405C088E08093200580917E04811169
:100C800042C147C18FEF80932005CAC08091B10453
:100C9000C091A50423ECC29FE001112430E2839FA0
:100CA000C00DD11D1124C85ADE4F8091B004FE0141
:100CB000E80FF11D60816F7080E00E94A1018091BA
:100CC000B004C80FD11D688162956F7082E00E94E8
:100CD000A1018091B004E82FE695E695E695F0E055
:100CE000282F277081E090E0A0E0B0E004C0880FDA
:100CF000991FAA1FBB1F2A95D2F7EF01CA5EDA4FD0
:100D00002881282B2883E15EFA4F809590818923E2
:100D1000808381E080931A0583C0E091B10484E070
:100D2000E89FF0011124ED59FB4F60816F7180E065
:100D30000E94A1012091230580E090E041E050E075
:100D400060E070E0FC01EE0FFF1FEE0FFF1FEC599B
:100D5000FB4F3081019632FD0BC06A017B01082EEA
:100D600004C0CC0CDD1CEE1CFF1C0A94D2F72C290D
:100D70008630910539F72093230552C02091A504B0
:100D800030E0A9014F5F5F4F81E090E0A0E0B0E06C
:100D900004C0880F991FAA1FBB1F4A95D2F7409124
:100DA0002305842B809323059091A904992319F09E
:100DB0008064809323058091B00441E050E060E0BE
:100DC00070E0082E04C0440F551F661F771F0A9459
:100DD000D2F790912205492B40932205853000F5EA
:100DE000843089F0982F969543EC429FF001439F01
:100DF000F00D1124E90FF11DEA5AFE4F608180FFCA
:100E00000BC0629509C083EC829FF001839FF00DB7
:100E10001124E85EFD4F60816F7080E00E94A101A7
:100E20000E94D90220911D0530911E05621B730B93
:100E3000693C710584F080911C05882319F010929B
:100E40001C0503C08FEF80931C050E94D90270938C
:100E50001E0560931D0560E082E00E9448028091BB
:100E60001B0581111EC00E94FA0980E00E94FA0948
:100E700080E00E94FA09C0911C05909117059C23FF
:100E800080912005892B0E94FA09809116058C23F8
:100E900090911F05892B0E94FA0981E080931B0520
:100EA00022C0C0911C0580911A058C2390912305C6
:100EB000892B0E94FA09809119058C2390912205B3
:100EC000892B0E94FA09809118058C2390912105A5
:100ED000892B0E94FA0980E00E94FA0980E00E94B2
:100EE000FA0910921B0561E082E0DF91CF911F911A
:100EF0000F91FF90EF90DF90CF90BF90AF909F90B9
:100F00008F900C94480280911F05806880931F0584
:100F100087CF8091160580688093160581CF4F9208
:100F20005F926F927F928F929F92AF92BF92CF9279
:100F3000DF92EF92FF920F931F93CF93DF93182FBF
:100F40000E94D201183C20F081E08093220502C06B
:100F5000143618F081E080932305812F6AE00E9407
:100F6000131D90FF02C080E001C084E09695E92F38
:100F7000EE0FEE0F9E0FE92FF0E0E050FF4FAFE1D4
:100F8000B5E0ED0190E067E070E0812C912C540118
:100F9000839405E00A0F419150E020E030E07901B0
:100FA000E80EF91E2A0102C055944794EA94E2F72C
:100FB00040FE11C07B01E21AF30A2401350104C08E
:100FC000440C551C661C771CEA94D2F7730162012D
:100FD0007880C728C8822F5F3F4F23303105F9F64C
:100FE00021960C13D8CF2AE0812F622F0E94131D67
:100FF0000E94131D90FF02C020E001C024E09695DE
:10100000E92FEE0FEE0F9E0FE92FF0E0E050FF4FBB
:1010100030E063E070E0812C912C54018394419185
:1010200050E080E090E0EC01C20FD31F3A0102C013
:1010300075946794CA95E2F760FE0FC0EB01C81B78
:10104000D90B7501640104C0CC0CDD1CEE1CFF1C27
:10105000CA95D2F7CC91CC2ACC92019683309105D7
:1010600011F711960A13DBCF81E080933A010E94B9
:10107000D90270933C0160933B01DF91CF911F91A6
:101080000F91FF90EF90DF90CF90BF90AF909F9027
:101090008F907F906F905F904F9008952F923F9226
:1010A0004F925F926F927F928F929F92AF92BF9278
:1010B000CF92DF92EF92FF920F931F93CF93DF9324
:1010C0000E94D90280911505681B65300CF4A4C0FC
:1010D0000E94D9026093150561E087E00E944802F2
:1010E0008BE490E00197F1F760E087E00E9448020E
:1010F00000E115E093E0C92ED12C23EF622E20E011
:10110000722E3FEDA32E30E0B32E4BEC842E40E048
:10111000942EEE24E394F12C65E0462E400E61E01F
:1011200088E00E94780260E089E00E947802C0E0D6
:10113000D0E0512C60E088E00E944802C60101978F
:10114000F1F7F3018491F5013490F4012490222009
:1011500079F081110E947601E22DF0E0EE0FFF1F81
:10116000EC55FF4FA591B4918C91382209F04CC0F9
:1011700061E088E00E9448022196C830D105D1F68E
:10118000D8015D928D014A12CACF85E0E1E5F1E018
:10119000DF011D928A95E9F790E0A1E0B0E0892F88
:1011A0008770AD0101C0440F8A95EAF7292F269573
:1011B0002695269530E0F901E05FFA4F808184237F
:1011C000F901E55FFA4F6081762F7423C42FC09533
:1011D000871313C08901045B1E4FF8017081672FCC
:1011E0006423681731F0F901EF5AFE4F2081422B3A
:1011F00040837C23872BF80102C06C23862B8083DD
:101200009F5F983261F608C0C7010C2E01C0880F9D
:101210000A94EAF7582AACCFDF91CF911F910F9132
:10122000FF90EF90DF90CF90BF90AF909F908F9006
:101230007F906F905F904F903F902F90089585ED35
:101240008093BC008091BC0084FDFCCF1092790596
:1012500008950E94541DDC01CB0163E0880F991FA3
:10126000AA1FBB1F6A95D1F7009721E0A207B1051D
:1012700014F421E00DC053E0B595A7959795879597
:101280005A95D1F7009721E0A207B10524F422E096
:101290002093A00531C043E0B595A7959795879514
:1012A0004A95D1F7009721E0A207B10514F423E095
:1012B000EFCF32E0B595A795979587953A95D1F7F9
:1012C000009721E0A207B10514F424E0E1CF22E069
:1012D000B595A795979587952A95D1F7009721E021
:1012E000A207B10514F425E0D3CF85E08093A005D3
:1012F0008FEF9FEFA0E0B0E02FB72093A105F89407
:1013000090939F0580939E0590938700809386001D
:101310008091A1058FBF80918100887F809381009B
:10132000909181008091A005892B80938100089580
:1013300020919D0590919C05213208F04AC0809132
:1013400079058111FCCF32E03093790531E030939B
:1013500078053FEF30937705109276052093750559
:10136000ACE7B5E045E555E0FA013E2F341B3217F6
:1013700018F43D913193F9CF109254052091540502
:10138000990F922B9093540590915305913061F4ED
:1013900010925305909154059093BB009091BC001E
:1013A00093FDF8CF95EC01C095EE9093BC00909121
:1013B00079059230E1F3909177059F3F79F0809124
:1013C0007705803241F080917705803331F084E0F9
:1013D00005C081E003C082E001C083E010927B057C
:1013E00010929D0510927A050895682F84EA95E081
:1013F0000C94790C0F931F93CF93DF93082F61E028
:1014000086E00E94780261E084E00E94780260E059
:1014100084E00E94480260E086E00E944802C7E043
:10142000D0E010E060E086E00E944802B8010C2E97
:1014300002C0759567950A94E2F76170772784E09A
:101440000E94480261E086E00E94480260E084E079
:101450000E944802219730F760E086E0DF91CF914B
:101460001F910F910C94480280E480937C0080913E
:101470007A00806480937A0080917A0086FDFCCFA8
:10148000809178002091790090E0922B0895CF937D
:10149000DF93EC018D3F910554F48A3F91055CF494
:1014A000863F910541F0883F910589F404C08E5F25
:1014B0009109029760F48091150790911607DC015D
:1014C000ED91FC910190F081E02D6C2F0995C63FC4
:1014D000D10511F410928606DF91CF9108950F93F4
:1014E0001F93CF93DF93EC01142F2150203118F478
:1014F000803891051CF41092860644C0813E910507
:10150000B4F5062F0F77682F622B80918606861719
:1015100069F0609386068091150790911607DC01AB
:10152000ED91FC910190F081E02D099580911507D6
:1015300090911607DC01ED91FC910190F081E02D76
:10154000602F0995CF7EC03CD105E1F08091150751
:1015500090911607DC01ED91FC91612F6F7701905E
:10156000F081E02DDF91CF911F910F910994865F5B
:1015700091090A9738F4CE01DF91CF911F910F9115
:101580000C94470ADF91CF911F910F9108951F92FC
:101590000F920FB60F9211242F933F934F935F93A7
:1015A0006F937F938F939F93AF93BF93EF93FF932B
:1015B0008091B900887F803609F49CC068F5883234
:1015C00009F45BC090F4803109F454C038F48823E6
:1015D00009F4F6C0883009F44DC0F6C0883109F42A
:1015E0004CC0803209F45DC0EFC0803409F468C09B
:1015F00048F4803309F455C0883309F0E5C080937E
:101600007705D8C0803509F44FC0883509F45DC02E
:10161000883409F0D9C0D6C0883909F4C7C0A8F405
:10162000883709F467C038F4883609F463C0803716
:1016300009F460C0C9C0883809F4B8C0803909F419
:101640005FC0803809F0C0C05BC0803B09F486C031
:1016500038F4803A09F466C0883A09F47FC0B4C00F
:10166000803C09F4A7C0883C09F4A4C0883B09F475
:101670008AC0AAC08091540510C0909176058091CF
:101680007505981770F5E091760581E08E0F8093CF
:101690007605F0E0EB5AFA4F80818093BB0085EC31
:1016A00086C0809377058EC0E091760581E08E0F2D
:1016B000809376058091BB00F0E0EB5AFA4F80836F
:1016C00090917605809175056EC0E091760581E078
:1016D0008E0F809376058091BB00F0E0EB5AFA4FB5
:1016E00080838091780581116DC081E080935305DE
:1016F00084EA61C083E08093790510923C07CFCFE4
:1017000080913C07803208F051C0E0913C0781E0B5
:101710008E0F80933C078091BB00F0E0E45EF84FB1
:101720008083BDCF85EC8093BC00109279058091B9
:101730003C07803230F4E0913C07F0E0E45EF84F83
:10174000108260913C0770E0E0911A07F0911B074E
:101750008CE197E0099510923C0736C084E08093B5
:1017600079051092190710925205E0911707F09130
:101770001807099580915205811105C081E0809379
:10178000520510923205E091190781E08E0F809387
:101790001907F0E0EE5CFA4F80818093BB009091D6
:1017A000190780915205981708F479CF85E880933E
:1017B000BC000AC085EC8093BC001092790504C07F
:1017C000109277050E941F09FF91EF91BF91AF9191
:1017D0009F918F917F916F915F914F913F912F9149
:1017E0000F900FBE0F901F90189540915205262F15
:1017F00030E0240F311D21323105DCF420917905D0
:101800002430C9F4FC0180E090E0861758F4309150
:1018100052052191DC01AE5CBA4FA30FB11D2C9390
:101820000196F3CF80915205680F6093520580E0D6
:10183000089581E0089582E008950895E0915E079B
:1018400080915D07E81730F4F0E0E35CF84F8081A9
:1018500090E008958FEF9FEF089590915E0780913B
:101860005D07981750F4E92FF0E0E35CF84F208112
:1018700030E09F5F90935E0702C02FEF3FEFC901FA
:10188000089580915D0790E020915E07821B910989
:101890000895CF92DF92EF92FF920F931F93CF9311
:1018A000DF937C01262F972F8A0180917A05882368
:1018B00091F0C62FD72F6E01C40ED51ECC15DD05B5
:1018C00071F06991D701ED91FC910190F081E02DCB
:1018D000C7010995F3CF642F822F0E94F50BC80131
:1018E000DF91CF911F910F91FF90EF90DF90CF90FC
:1018F0000895CF93DF931F92CDB7DEB76983209110
:101900007A052223D1F020919D05203240F021E07C
:1019100030E0FC013383228380E090E015C08091A9
:101920007B05E82FF0E0E458FA4F998190838F5FB0
:1019300080937B0580939D0505C061E0CE010196F3
:101940000E94F50B81E090E00F90DF91CF91089518
:10195000CF92DF92EF92FF920F931F93CF93DF937B
:101960006C017A018B01C0E0D0E0CE15DF0589F073
:10197000D8016D918D01D601ED91FC910190F0811E
:10198000E02DC6010995892B11F47E0102C0219634
:10199000ECCFC701DF91CF911F910F91FF90EF9096
:1019A000DF90CF9008951F920F920FB60F921124DF
:1019B0002F933F934F935F936F937F938F939F9357
:1019C000AF93BF93EF93FF93E091A205F091A3052E
:1019D0000995FF91EF91BF91AF919F918F917F9169
:1019E0006F915F914F913F912F910F900FBE0F908C
:1019F0001F901895CF93DF93CDB7DEB72B970FB617
:101A0000F894DEBF0FBECDBF789484B5826084BDEC
:101A100084B5816084BD85B5826085BD85B58160F2
:101A200085BD80916E00816080936E001092810070
:101A3000809181008260809381008091810081602B
:101A400080938100809180008160809380008091EC
:101A5000B10084608093B1008091B0008160809378
:101A6000B00080917A00846080937A0080917A003F
:101A7000826080937A0080917A00816080937A00FE
:101A800080917A00806880937A001092C10081E092
:101A900080937C0420E030E0F901EE0FFF1FEE0F91
:101AA000FF1FEE59FB4F8181807E8F608183828191
:101AB0008770806E828383818C7F816083832F5FB8
:101AC0003F4F2630310541F780E00E94950361E0E9
:101AD00082E00E94780261E086E00E94780261E084
:101AE00084E00E94780210923C0110923B01109217
:101AF0003A0161E087E00E94780261E088E00E949C
:101B0000780260E089E00E94780261E081E10E9451
:101B1000780261E080E10E94780261E08FE00E943B
:101B200078021092800080E18093810060E070E094
:101B3000CB010E942B09E0911507F0911607A089AF
:101B4000B18982E08C93A485B5851C92A685B78562
:101B50008FE38C93108EA489B58986E08C93A2893B
:101B6000B3898C9180618C93A289B3898C918860B0
:101B70008C93A289B3898C9180688C930288F389B5
:101B8000E02D80818F7D80831092870610928606DB
:101B90001092850610928E0610928D0610928C0679
:101BA00010928B06109214071092910610929006D4
:101BB00010928F06109292061092930680918406DE
:101BC0008170826081608093840680EA91E09093C6
:101BD0006306809362068FE991E09093610680939B
:101BE000600684E193E0909379068093780682EB17
:101BF00093E090937B0680937A0681EE91E0909338
:101C00007F0680937E060E942B0510925E0710923D
:101C10005D0710927B0510929D051092790581E079
:101C2000809378051092530561E082E10E9448029A
:101C300061E083E10E9448028091B9008E7F809329
:101C4000B9008091B9008D7F8093B90088E48093BA
:101C5000B80085E48093BC0080E58093B00580E403
:101C600090E09093C2058093C1050E94600488E7CC
:101C70000E94CF0380913F0190914001069730F47C
:101C80008091470190914801069768F110E000E0CB
:101C90001F5F80913F0190914001059738F480913A
:101CA000470190914801059708F465C080914B0168
:101CB00090E020E030E0AC01022E02C0559547953F
:101CC0000A94E2F740FD022F2F5F3F4F2630310587
:101CD00091F70E944E080E9460048FE00E948F07D7
:101CE0000E943D05D5CF0E944E080E94600410E07E
:101CF00081E00E948F0700E0202F269526952695EB
:101D000030E0802F8770F901EF5AFE4F408150E09C
:101D1000082E02C0559547950A94E2F740FF0CC083
:101D2000F901E45BFE4F208130E002C03595279534
:101D30008A95E2F720FD1FC00F5F0832E9F6809117
:101D40004B0190E020E030E0022FAC01022E02C0F7
:101D5000559547950A94E2F740FD0DC02F5F3F4F20
:101D60002630310589F71F5F0E944E080E946004EB
:101D70000E943D05BDCF812F0E948F07202F220F8B
:101D8000216020933E01822F810F33E7839F20192A
:101D9000112420933D0188248A9493E0992EA12C4C
:101DA000B12C81EB95E050E1580F5D83809187065F
:101DB000813108F0B6C18091150790911607DC01BA
:101DC000ED91FC910480F581E02D0995892B09F4B2
:101DD000A8C18091150790911607DC01ED91FC9147
:101DE0000680F781E02D09957C0120918D063091C8
:101DF0008E062115310509F0B8C080938806109130
:101E00008506812F0E9405050E941705882361F031
:101E1000E7FC0AC010938806E092890681E090E012
:101E200090938E0680938D0610918806812F0E94D4
:101E30000505813F910509F461C084F5803B91055A
:101E400009F45FC06CF48039910509F45AC0803AF6
:101E5000910509F456C08038910509F0E3C051C0DE
:101E6000803D910509F44AC02CF4803C910509F4A9
:101E700045C0D8C0803E910509F443C0803F91051C
:101E800009F0D0C020E830E030938C0620938B0618
:101E90001092850620EF2093940639C0883F910563
:101EA000B9F044F4833F910549F15CF1863F910517
:101EB00079F0B8C08A3F91050CF4B4C08D3F91050C
:101EC0003CF09C012E5F31092230310508F0AAC098
:101ED000909391068093900610928F06109292062E
:101EE0001092930681E08093140710928E06109250
:101EF0008D0610928C0610928B06FAC022E030E01C
:101F000002C023E030E030938C0620938B062091B2
:101F10008D0630918E0640918B0650918C06BA0149
:101F2000615071092617370708F4DBC090939106BA
:101F3000809390061F701F5F10938F068091890613
:101F4000809392064330510529F480918A0680934C
:101F5000930602C01092930610928E0610928D0680
:101F600010928C0610928B0620C087FF45C09927DF
:101F70008D3F910554F48A3F91056CF4873F91059C
:101F8000C1F0883F9105C1F506C0AC014E5F510913
:101F90004230510588F590939106809390061092F7
:101FA00092061092930610928F0681E08093140798
:101FB0009FC080919406803FA9F5C9010196F9015F
:101FC000E05AF94F47EF44AB20EF30E030939106F1
:101FD00020939006809392069093930610928F061A
:101FE00081E08093140710928E0610928D06109255
:101FF0008C0610928B0672C080918806F901E05A17
:10200000F94F803FD1F4E4AAE0908B06F0908C0663
:10201000C70101972817390708F463C01091880693
:10202000103F69F410928E0610928D0610928C0665
:1020300010928B061092850674C0E0A6E5CF812F22
:102040000E9405056C0190939106809390060E9472
:102050001705882331F0812F8F708F5F80938F0653
:1020600002C010928F068091890680939206B3E099
:10207000EB16F10429F480918A068093930602C03E
:102080001092930610928E0610928D0610928C0676
:1020900010928B0681E080931407E0EBCE16D104FA
:1020A000D1F06CF420E9C216D104A9F030EAC316CD
:1020B000D10489F050E8C516D10481F40CC060ED5C
:1020C000C616D10441F070EEC716D10421F080ECA1
:1020D000C816D10419F4109385060AC0109285061B
:1020E00007C02F5F3F4F30938E0620938D0619C097
:1020F00080919006909191068039910529F4809104
:102100009306882309F48EC78091900690919106DA
:10211000009709F09BC640918406342F317040FD32
:10212000A6C603EFE02E04E0F02E00E010E0C801A8
:10213000880F991F880F991FFC01EA50FB4F6F0110
:10214000808180FF19C00E94D902D7012D913C9156
:102150001197621B730B77FD0FC0F6012081269546
:102160002F7040E012966C9180E890E00E946F0A18
:10217000D6018C918E7F8C930F5F1F4FB4E0EB0ED6
:10218000F11C0630110599F60E944E080E94600469
:102190008091AF04823009F44FC028F4882351F0B5
:1021A000813041F18BC0833009F451C0843009F48F
:1021B0007DC084C020913F0130914001A7E0B0E094
:1021C0000E94041D6F3F73408105910514F00C942B
:1021D0001B192091470130914801A5E0B0E00E9411
:1021E000041D6F3F73408105910514F00C941B1979
:1021F0000C941F1920913F0130914001A7E0B0E0FD
:102200000E94041DA50194010E94B01C232B242BC5
:10221000252B09F053C02091470130914801A5E0DA
:10222000B0E00E94041DA50194010E94B01C232B64
:10223000242B252B49F042C08091550180FF3EC0E0
:102240008091500180FF3AC01092AF0437C0809156
:10225000500180FFF9CF80E0282F269526952695FE
:1022600030E0982F9770F901EF5AFE4F408150E00F
:10227000092E02C0559547950A94E2F740FF12C017
:10228000F901E45BFE4F208130E002C035952795CF
:102290009A95E2F720FD06C08093B00482E0809317
:1022A000AF040CC08F5F8032B9F608C08091500136
:1022B00087FD04C01092AF041092B0048091AF0467
:1022C000823009F4C2C030F4882391F0813009F4DF
:1022D00099C0BCC3833009F402C1843009F0B6C38D
:1022E0002091550130E04091500150E081E248C119
:1022F0004091B104842F90E0FC01EE0FFF1FEE0F20
:10230000FF1FED59FB4F50815F715F5F65E0880FE4
:10231000991F6A95E1F72091A50433EC239F800D66
:10232000911D1124885A9E4FFC017FEF6E2F681B70
:10233000262F26952695269530E06770D901AF5A4D
:10234000BE4FAC91B0E0062E02C0B595A7950A9499
:10235000E2F7A0FF14C0D901A45BBE4F2C9130E07E
:1023600002C0359527956A95E2F720FF08C02081C5
:10237000322F3F7011F4708302C0207F208331968A
:102380002E2F281B251790F22091550130E06091E7
:10239000500170E0842F91E2492F4770F901042E1B
:1023A00002C0F595E7950A94E2F7E0FF0AC0DB0169
:1023B00002C0B595A7954A95E2F7A0FF02C08FED40
:1023C000890F9F5F973241F78093B10480914B0151
:1023D00082FF3CC32091430130914401AEECB0E058
:1023E0000E94041DA50194010E94B01C11E3120F6C
:1023F000113309F410E0812F0E948F07812F0E9472
:10240000CF0324C31091B1042091470130914801BA
:10241000A5E0B0E00E94041DA50194010E94B01C3B
:10242000E22F211116C720913F0130914001A7E012
:10243000B0E00E94041DA50194010E94B01CE22F8F
:10244000222309F403C30C945D1B80E0282F2695FA
:102450002695269530E0982F9770F901EF5AFE4F98
:10246000408150E0092E02C0559547950A94E2F745
:1024700040FF30C0F901E45BFE4F208130E002C034
:10248000359527959A95E2F720FF24C04091A50441
:1024900050E0E091B1049091B00420E2E29FF0019D
:1024A000112463EC649F9001659F300D1124E20FAD
:1024B000F31FE90FF11DE85AFE4F803120F48F70B1
:1024C0009081907F04C08295807F90819F70892B3E
:1024D0008083BCC28F5F803209F0B8CFB7C28091D1
:1024E000550190E02091500130E0E1E24E2F47701D
:1024F000BC01042E02C0759567950A94E2F760FF4F
:1025000018C0B90102C0759567954A95E2F760FF5A
:1025100010C074E0E79FF0011124E252FC4F828169
:1025200082FB222720F991E0922790FB82F9828397
:1025300003C0EF5FE732D1F610914B0112FF04C0E8
:1025400080917A040E948F0713FF04C08091800459
:102550000E948F078091550187FF78C280915001BA
:1025600087FF74C20E94390471C2BA0102C0759516
:1025700067959A95E2F760FD0FC08F5F853299F0FD
:10258000982F9770B901092E02C0759567950A9426
:10259000E2F760FFF2CFE9CF81529091A804913029
:1025A00061F48093A60490915401492F50E020914A
:1025B0004F01622F70E088E106C00E949503F3CFBF
:1025C0008F5F8D31A9F0382F3770FA01032E02C0CA
:1025D000F595E7950A94E2F7E0FFF2CFFB0102C020
:1025E000F595E7953A95E2F7E0FFEACF885109C003
:1025F00096FD02C00C94651B26FD02C00C94651B61
:1026000086E08093B004612C862D8695869586950C
:1026100090E0462D4770FC01EF5AFE4F208130E0DC
:10262000042E02C0359527950A94E2F720FFF5C1E4
:10263000FC01E45BFE4F808190E002C09595879598
:102640004A95E2F780FFE9C14091A50450E020914E
:10265000B004243028F5822F869590E020FD0DC02F
:1026600023EC249FF001259FF00D1124E80FF91FA2
:10267000EA5AFE4F8081807F10C023EC249FF00136
:10268000259FF00D1124E80FF91FEA5AFE4F80E153
:10269000689E3001112480818F70682A6082C1C1D8
:1026A000243071F483EC849FF001859FF00D112498
:1026B000E85EFD4F862D8F709081907F692EEDCF63
:1026C000263009F0E9C0262C229450EF252266E539
:1026D000C62E61E0D62E2AE233E03A83298377249E
:1026E00073948091C1059091C205289E2001299E76
:1026F000500C112460E0312C232D30E08091C10575
:102700009091C20597FD0F9644E0959587954A955F
:10271000E1F7281739070CF093C0062F10E0780175
:10272000E40CF51C8091B00570927A0580939C05AD
:1027300010927B0510929D058F2D90E06E830E9474
:10274000F509C70199270E94F5090E94980980910F
:10275000B0056E81909179059111FCCF7092790549
:10276000709278053FEF30937705109276055FE021
:10277000509375057092540590915405880F892BDC
:102780008093540580915305813071F41092530564
:10279000809154058093BB008091BC0083FDF8CFED
:1027A00075EC7093BC0003C085EE8093BC008091F3
:1027B00079058130E1F380917605803118F48091BC
:1027C000760501C080E1A5E5B5E0EDE3F7E09E2FD9
:1027D0002DE337E0921B981718F49D919193F7CF52
:1027E00010925E0780935D07F12C90915D078091B8
:1027F0005E07981769F084EA95E06E830E942D0CBD
:10280000EF2DF0E0E055FA4F8183F3946E81EDCF28
:10281000262FA801415F5F4F822F90E0481759078C
:1028200064F0DC01AD54BB4F801B910BFC01E05503
:10283000FA4F81818C932F5FEFCF3394605F5CCF31
:1028400029813A812034310510F4098101C000E466
:1028500010E0A80163EB74E0C6010E94591D2981B4
:102860003A81201B310B3A832983C00ED11E239459
:10287000232B09F036CF83E3E0E8F4E0DF011D927B
:102880008A95E9F780E00E94950380917A040E947E
:10289000CF030E942B05BCC0273009F0C2C0762CA4
:1028A0007294B0EF7B220AE213E086E5C82E81E045
:1028B000D82E80E4282F30E03B872A87A901B60173
:1028C00083EB94E00E94591D8091C1059091C2054F
:1028D000789E9001799E300D11243A832983F12C42
:1028E000E12C2E2D30E08091C1059091C20597FD1D
:1028F0000F96F4E095958795FA95E1F72817390733
:102900000CF076C08F2D90E049805A80480E591EF9
:102910006F2DAC01415F5F4F262F30E04217530708
:1029200064F0F901E81BF90BE055FA4FD901AD54F9
:10293000BB4F2C9121836F5FEFCF8091B00531E0C9
:1029400030937A0580939C0510927B0510929D052B
:10295000852D90E00E94F509C20199270E94F50992
:10296000A1EB4A2EA5E05A2ED2016D912D0184EAE9
:1029700095E00E94790CBD81B411F6CF0E949809B0
:102980000E94B4029B01AC0185E090E0A0E0B0E0C1
:102990001C012D012E833F83488759870E94B40272
:1029A0002E813F8148855985DC01CB01821B930B29
:1029B000A40BB50B883E9340A105B10578F0E1E08A
:1029C0002E1A31084108510828513C4F4F4F5F4F94
:1029D0002114310441045104E9F606C0D201C101B9
:1029E000232824282528A1F6E39420E1F20E79CFAC
:1029F0002A853B85021B130BC20ED31E739401154F
:102A0000110531F00034110508F053CF802F52CF5B
:102A100081E0860D0E948F0704C0639430E1631249
:102A2000F3CD8091550186FF0BC09091500196FF28
:102A300007C091E02091A904211190E09093A9048E
:102A400080FF04C08091500180FD8CCD8091A8044E
:102A5000813029F00E943D050E946C01A7C9809138
:102A6000AD04882309F462C17090AC041092AC04E8
:102A7000772009F45FC09091AE048091A604109273
:102A8000AE042091A904211155C0992309F44AC02C
:102A9000843009F04BC08091A7048F5F8093A70416
:102AA0003091A50490E053EC359F80011124F8018A
:102AB000E85EFD4F20812F7030E028173907D4F5EC
:102AC0000A5A1E4FD8014C9111963C91932F9F703A
:102AD000242F2F70290F842F82958F70982F920F9B
:102AE000832F82958F70890F29F10E940504F801C8
:102AF0009081292F2F70821708F4F2C592959F704C
:102B0000920F891708F4EEC53181232F2F70920F91
:102B1000891708F4E9C532953F70930F891708F4B7
:102B2000E5C508C090917D04911104C0843010F473
:102B30000E94950360E8E62E64E0F62E212C312CED
:102B400076E0672EE6E95E2E629C8001639C100DA4
:102B500011240F571B4FD80111968C91119783FDAB
:102B6000B2C08C91F101ED53FF4F6F01772009F452
:102B70005EC08F7190E060917C04062E000C770B94
:102B80000E94331D892B69F480E10E94050482951F
:102B9000807FD80111969C9111979F70892B119677
:102BA0008C93629CF001639CF00D1124EF57FB4F56
:102BB0008181877009F089C02091AA043091AB040B
:102BC000D70116963C932E93159740917B0444238E
:102BD000B9F0808180FF14C0F601EE0FFF1FEE0FE9
:102BE000FF1FEA5AFE4F9081907F51F4552D450307
:102BF000C001112460917A0470E00E941F1D02C080
:102C000060E070E0260F371FD70114963C932E9397
:102C10001397629CF001639CF00D1124EF57FB4F5A
:102C200081818860818380818F7180834EC0282F4D
:102C3000229526952770EE0FFF1FEE0FFF1FEA5A11
:102C4000FE4F4081E42FE295E370F0E0622F70E0E8
:102C50006E177F070CF05DC02F5F2770922F929543
:102C6000990F907E8F71892BD8018C9330E0A8E961
:102C7000BAE30E94041D4295469546954370A42FE1
:102C8000B0E011969B01AC010E94DA1C40917A04DD
:102C900031964E9F90014F9F300D1124032E000C52
:102CA000440B550B0E94E21CF70185819681280F89
:102CB000391F34832383D80111968C911197886032
:102CC00011968C9326C0772021F1629CF001639CC1
:102CD000F00D1124DF01AE57BB4F8C918F5F8770D1
:102CE000EF57FB4F4181487F482B418390E0D10152
:102CF000AA0FBB1FAA0FBB1FAE59BB4F2C91229529
:102D000026952695237030E02817390714F4487F5C
:102D10004183BFEF2B1A3B0AE6E0EE0EF11CF6E012
:102D20002F16310409F010CF1092AD0465EFE62E96
:102D300064E0F62E70E8472E74E0572E1B861A8644
:102D4000E6E0CE2E2A853B85C29E3001C39E700CE4
:102D5000112483010F571B4FD80111968C9183FFCB
:102D600063C00E94D902F20123813481621B730B7C
:102D700077FD5AC08A859B85880F991F880F991FF8
:102D8000BC016E597B4F1B01DB0112968C9182FDB9
:102D90001AC09091A504D8018C918F71EA85FB85AA
:102DA00055E0EE0FFF1F5A95E1F7B3ECB99FE00D28
:102DB000F11D1124E80FF11DE85AFE4F8081082F04
:102DC0000F7009F095C42A853B85232B09F409C5AA
:102DD0006A857B85C69EF001C79EF00D1124EF57D2
:102DE000FB4F408181E0840F8F71407E482B4083F0
:102DF00090E0DB01AA0FBB1FAA0FBB1FAD59BB4F51
:102E00002C912F7130E02817390714F4407E40834D
:102E10008A859B85C89EF001C99EF00D1124EF574D
:102E2000FB4F8181877F8183AA85BB851196BB87F4
:102E3000AA87B4E0EB0EF11CE6E04E0E511C2A8589
:102E40003B852630310509F07DCF04CE9C0120580A
:102E500031092136310508F0ECC020918706309108
:102E60008F06321709F4E5C0211155C9E2C0842F3D
:102E70008E7F09F456C98091900690919106BC010D
:102E8000605871096136710518F520918F065091CF
:102E90008706251719F031E0511130E0469550E0D2
:102EA0004230510571F04330510579F04130510500
:102EB00009F037C940919306609192060E946F0A0B
:102EC00030C9332309F42DC9F5CF31112AC9F2CF06
:102ED000FC01E05FF109E031F10508F022C9EC5C8A
:102EE000FF4F0C94471D0E94470A1BC9809193060F
:102EF00090E0F82EEE2480919206E82AB1E8EB16D5
:102F0000F10418F0B0E8EB2EF12C00E010E00E1503
:102F10001F0509F484C08091150790911607DC0104
:102F2000ED91FC91D801A05AB94F0190F081E02DAC
:102F3000D4966C9109950F5F1F4FE9CF10919206BF
:102F40008091150790911607DC01ED91FC9101909D
:102F5000F081E02D63EF09951F77612F70E080917C
:102F60001507909116070E94360559C09091930657
:102F7000B0E89B9F8001112480919206082B8091DC
:102F8000150790911607DC01ED91FC910190F081FD
:102F9000E02D62EF09958091150790911607DC01ED
:102FA000ED91FC91B8016F7777270190F081E02DCA
:102FB00009958091150790911607DC01ED91FC9120
:102FC000B801660F672F661F770B71956F777727AC
:102FD0000190F081E02D22C0809192068770B0E1CF
:102FE0008B9FC0011124109193061F70182B8091A4
:102FF000150790911607DC01ED91FC910190F0818D
:10300000E02D61EF09958091150790911607DC017D
:10301000ED91FC910190F081E02D612F09951092C6
:1030200086067FC880E890E0909391068093900692
:103030006BC8813F9105C1F4E0917006F091710673
:103040000CC08B3F91050CF0D4C0833F910509F073
:10305000AFC0E0917406F0917506309709F45BC833
:1030600080919206099557C8823F91050CF087C060
:10307000803B9105C1F4E0916606F091670608C0B7
:103080008038910509F047C8E0916006F09161062B
:10309000309709F440C84091930660919206809160
:1030A0008F06099538C8813B910584F480399105D4
:1030B00029F4E0916206F0916306EACF803A910527
:1030C000F9F6E0916406F0916506E2CF803D910546
:1030D00029F4E0916A06F0916B060BC0813D9105E1
:1030E0009CF4803C910509F016C8E0916806F091C7
:1030F0006906309711F40C948B10609192068091C0
:103100008F0609950C948B10803E9105C9F4E091CF
:103110006C06F0916D06309711F40C948B10609151
:1031200093066F7790E8699FB00111248091920611
:103130008F77682B705280918F0609950C948B10B5
:10314000803F910511F00C948B10E0916E06F09188
:103150006F06309711F40C948B106091930670E019
:10316000762F662780919206682B6138710510F0E2
:1031700060E870E084E996E009950C948B108A3F32
:10318000910509F05ECFE0917A06F0917B0609C0C7
:10319000883F910511F00C948B10E0917806F09126
:1031A0007906309711F40C948B1009950C948B10C0
:1031B000833F9105B4F4E0917206F0917306309765
:1031C00011F40C948B10809193068F77A0E88A9F5E
:1031D000C0011124209192062F77822B09950C941F
:1031E0008B10863F9105A1F6E0917606F091770667
:1031F000D8CF8C3F910529F4E0917E06F0917F06AF
:10320000D0CF8C3F91052CF4E0917C06F0917D06A7
:10321000C8CF8E3F910529F4E0918006F091810698
:10322000C0CF8F3F910511F00C948B10E091820676
:10323000F0918306B6CF81E08093AF043DC88091C2
:10324000500180FF02C083E02AC887FF37C884E0AE
:1032500026C820682093B00481E0E12EF12C109163
:103260005001117090914B01811172C191FFE5C124
:103270008E2F90E0FC013197E730F10508F021C274
:10328000EC5BFF4F0C94471DF701ED53FF4F7F019F
:10329000111119C020914101309142018F01000F9D
:1032A000111F000F111F0A5A1E4FAFE0B0E00E941D
:1032B000041DA50194010E94B01C2F70D8018C91AF
:1032C000807F282B2C93C701880F991F880F991F87
:1032D0008A5A9E4FFC0180818F7038C111112FC016
:1032E00020914101309142018701000F111F000F11
:1032F000111F0E591B4FAFE7B0E00E94041DA5013E
:1033000094010E94B01C922F990F990F990FD80128
:1033100012968C9112978770892B12968C93DA01F2
:10332000C90125E0B695A795979587952A95D1F778
:10333000282F2370F80183818C7F282B2383C701DA
:10334000880F991F880F991FFC01EC59FB4F808152
:10335000982F969596959695818183708295880F82
:10336000807E892BAFC1111119C08701000F111F79
:10337000000F111F0E591B4F6091410170914201C6
:1033800080E090E0A50194010E94B01CD801129643
:103390008C91129720FB82F912968C93C701880FAB
:1033A000991F880F991F8C599B4FFC01808182FBCC
:1033B000882780F987C197012D533F4F790111115B
:1033C0001CC020914101309142018701000F111F63
:1033D000000F111F0A5A1E4FA3E0B0E00E94041D07
:1033E000A50194010E94B01C2370822F8295807FDA
:1033F000D8012C912F7C282B2C93C701880F991F63
:10340000880F991F8A5A9E4FFC01808182958F7088
:103410002EC097012D533F4F790111111CC02091EF
:103420004101309142018701000F111F000F111F50
:103430000A5A1E4FA3E0B0E00E94041DA5019401AA
:103440000E94B01C2295220F220F207CD8018C9163
:103450008F73282B2C93C701880F991F880F991FF2
:103460008A5A9E4FFC01808182958695869583704D
:103470006DC011111CC020914101309142018701A2
:10348000000F111F000F111F0E591B4FAFE1B0E0CD
:103490000E94041DA50194010E94B01C2F71D80147
:1034A00011968C911197807E282B11962C93C70131
:1034B000880F991F880F991F8D599B4FFC018081A0
:1034C0008F7144C011112FC02091410130914201F0
:1034D0008701000F111F000F111F0E591B4FAFE185
:1034E000B0E00E94041DA50194010E94B01C922F1F
:1034F0009295990F907ED80111968C9111978F71AA
:10350000892B11968C93DA01C90123E0B695A79512
:10351000979587952A95D1F7282F2370F8018281F6
:103520008C7F282B2283C701880F991F880F991F32
:10353000FC01ED59FB4F8081982F929596959770DD
:1035400081818370880F880F880F892B8F5FBAC0A5
:1035500095FF73C0E330C1F128F4E13051F0E2305F
:10356000D9F0AFC0E43009F440C0E53009F44EC0F2
:10357000A8C011110EC02091490130914A01A4E662
:10358000B0E00E94041DA50194010E94B01C20938C
:103590007B0480917B0496C0111113C020914901D6
:1035A00030914A01AFE1B0E00E94041DA5019401F1
:1035B0000E94B01CDA01C9010196A11DB11D8093C2
:1035C0007C0480917C047EC011110CC06091490183
:1035D00070914A0180E090E0A50194010E94B01C26
:1035E00020937D0480917D046DC011110CC0609109
:1035F000490170914A0180E090E0A50194010E9488
:10360000B01C20937E0480917E045CC060914901CF
:1036100070914A0180E090E0A50194010E94B01CE5
:10362000111108C090917F04921721F020937F041C
:103630000E942B0580917F0445C09091510197FF16
:1036400005CA90914C0197FF01CA811115C0E33062
:1036500009F0FCC9C701880F991F880F991FFC0149
:10366000EE59FB4F828182FB222720F991E09227BD
:1036700090FB82F98283EAC9E43069F0E53099F081
:10368000E33009F0E3C981E090917D04911180E07D
:1036900080937D04DBC981E090917E04911180E0EC
:1036A00080937E04D3C981E090917F04911180E0E2
:1036B00080937F040E942B05C9C92093B00480E049
:1036C000CCCD80E00E948F07C1C997FD02C00C9449
:1036D000031327FD02C00C94031387E00C9401131D
:1036E00080E026CA81E024CA82E022CA83E020CAA0
:1036F00082958F7090E0F301EE57FB4F2081229569
:103700002F7030E0821793070CF45DCB000F000F91
:10371000000F095F6A847B84660C771C660C771C3B
:10372000F301ED59FB4FA0818A2F82958695877012
:10373000A181A370AA0FAA0FAA0FA82BB0E011961F
:1037400028E93AE30E944D1D2091800430E040E0DA
:1037500050E00E94E21C29833A834B835C83F3018F
:10376000EC59FB4F1081812F8695869586951181A6
:1037700013701295110F107E182BF10180818F703C
:10378000DD24D394D80EF301EA50FB4F208120FFB3
:1037900009C026952F7040E0D7016C9180E890E039
:1037A0000E946F0A0E94D902F701329789819A819B
:1037B000860F971F91838083F301EA50FB4F80812E
:1037C00081609D2D9F70990F817E892B8083F701E9
:1037D00010832D2D402F612F80E990E00E946F0A09
:1037E000F2CA909181049F71809163048F71981344
:1037F000EFCA31E03093AE04EBCA1092A7051092E5
:10380000A60588EE93E0A0E0B0E08093A805909331
:10381000A905A093AA05B093AB052DE131E0309343
:10382000A5052093A4051092C6051092C5058093A6
:10383000C7059093C805A093C905B093CA058DE24A
:1038400091E09093C4058093C30585EC90E090933C
:10385000D0058093CF0584EC90E09093D2058093BF
:10386000D10580EC90E09093D4058093D30581EC52
:1038700090E09093D6058093D50582EC90E09093EC
:10388000D8058093D70586EC90E09093DA05809375
:10389000D9051092DC051092DD051092DE0510921C
:1038A000DF0583EC95E0909316078093150710923F
:1038B00061061092600610926306109262061092E2
:1038C00065061092640610926706109266061092C2
:1038D00069061092680610926B0610926A061092A2
:1038E0006D0610926C0610926F0610926E06109282
:1038F0007106109270061092730610927206109262
:103900007506109274061092770610927606109241
:1039100079061092780610927B0610927A06109221
:103920007D0610927C0610927F0610927E06109201
:103930008106109280061092830610928206E1EBB7
:10394000F5E080E18E0F11928E13FDCF80E091E0C3
:103950009093C2058093C10580E58093B0050895DA
:10396000052E97FB1EF400940E94C71C57FD07D03C
:103970000E94E21C07FC03D04EF40C94C71C509527
:103980004095309521953F4F4F4F5F4F089590954B
:103990008095709561957F4F8F4F9F4F08950E943E
:1039A000041DA59F900DB49F900DA49F800D911DA7
:1039B00011240895B7FF0C94CF1C0E94CF1C821BCA
:1039C000930B0895A1E21A2EAA1BBB1BFD010DC08B
:1039D000AA1FBB1FEE1FFF1FA217B307E407F507BF
:1039E00020F0A21BB30BE40BF50B661F771F881F9B
:1039F000991F1A9469F760957095809590959B0131
:103A0000AC01BD01CF010895A29FB001B39FC001D9
:103A1000A39F700D811D1124911DB29F700D811DFA
:103A20001124911D0895991B79E004C0991F9617E0
:103A300008F0961B881F7A95C9F780950895AA1BF0
:103A4000BB1B51E107C0AA1FBB1FA617B70710F089
:103A5000A61BB70B881F991F5A95A9F780959095BB
:103A6000BC01CD01089597FB072E16F4009407D0F2
:103A700077FD09D00E941F1D07FC05D03EF49095EC
:103A800081959F4F0895709561957F4F0895EE0F32
:103A9000FF1F0590F491E02D09940E94041DB7FFCB
:103AA0000895821B930B089581E090E0F8940C94A4
:103AB000621DFB01DC0102C001900D92415050409B
:083AC000D8F70895F894FFCF38
:103AC80072525252727711774177575477111747CC
:103AD80041715171775577517100000000790C4997
:103AE8000C410C2D0C1E0C1D0C000000000301A83D
:0A3AF8000CCC00AA00BE004A010039
:00000001FF
